S00D0000417564696F2E7372656325
S11300000C9456000C9460000C9460000C946000F6
S11300100C9460000C9460000C9460000C946000DC
S11300200C9460000C9460000C9460000C946000CC
S11300300C9460000C9460000C9460000C946000BC
S11300400C9460000C9460000C9460000C946000AC
S11300500C9460000C9460000C9460000C9460009C
S11300600C9460000C9460000C9460000C9460008C
S11300700C9460000C9460000C9460000C9460007C
S11300800C9460000C9460000C9460000C9460006C
S11300900C9460000C9460000C9460000C9460005C
S11300A00C9460000C9460000C94600011241FBE3A
S11300B0CFEFDAE0DEBFCDBF0E946D000C947E006E
S11300C00C940000229A84B5836084BD84B5806456
S11300D084BD85B5826085BD08950E9462002A9A18
S11300E08FEF97E40197F1F700C000002A988FEF93
S11300F097E40197F1F700C00000F1CFF894FFCF27
S9030000FC
